:020000040800F2
:10000000E40901203D0A0008B90A0008331200087B
:10001000B90A0008B90A0008B90A0008000000007F
:10002000000000000000000000000000B90A000805
:10003000B90A000800000000B90A0008B90A00085F
:10004000B90A0008B90A0008B90A0008B90A000884
:10005000B90A0008B90A0008B90A0008B90A000874
:10006000B90A0008B90A0008B90A0008B90A000864
:10007000B90A0008B90A0008B90A0008B90A000854
:10008000B90A0008B90A0008B90A0008B90A000844
:10009000B90A0008B90A0008B90A0008B90A000834
:1000A000B90A0008B90A0008B90A0008B90A000824
:1000B000B90A0008B90A0008B90A0008B90A000814
:1000C000B90A0008B90A0008B90A0008B90A000804
:1000D000B90A0008B90A000859190008C919000826
:1000E000B90A0008B90A0008B90A0008B90A0008E4
:1000F000B90A0008B90A0008B90A0008B90A0008D4
:10010000B90A0008B90A0008B90A0008B90A0008C3
:10011000B90A0008B90A0008B90A00082102000853
:10012000B90A0008B90A0008B90A0008B90A0008A3
:10013000B90A0008B90A0008B90A0008B90A000893
:10014000B90A0008B90A0008B90A0008B90A000883
:10015000B90A0008B90A0008B90A0008B90A000873
:10016000B90A0008B90A0008B90A0008B90A000863
:10017000B90A0008B90A0008B90A0008B90A000853
:10018000B90A0008B90A000880B582B000AF7860EB
:1001900040F6C403C2F200031A687B68D9B240F685
:1001A000B403C2F20003995402F1010240F6C40301
:1001B000C2F200031A6040F6C403C2F200031A68D8
:1001C00040F6B403C2F200034FF00001995440F628
:1001D000C403C2F200031B6803F101030F2B05D80F
:1001E0007B680A2B02D07B68002B14D140F6C40335
:1001F000C2F200034FF000021A6040F6B403C2F2EC
:1002000000034FF0040019464FF0000201F006F819
:100210000346002B00BF07F10807BD4680BD00BFA5
:10022000B0B483B000AF4FF4A053C4F200034FF654
:10023000FE721A824FF000037B609AE07B684FEAFF
:10024000A303FB707B68DBB203F00303BB70F97898
:10025000B87840F6D402C2F200020B464FEA4303DC
:100260005B184FEA83035B181B1803F108034FEA7E
:100270008303D3185B68002B77D0FA78B87840F600
:10028000D401C2F2000113464FEA43039B184FEA20
:1002900083039B181B1803F108034FEA8303CB1851
:1002A0005B6803F1FF3440F6D401C2F2000113464B
:1002B0004FEA43039B184FEA83039B181B1803F173
:1002C00008034FEA8303CB185C6040F6D401C2F206
:1002D000000113464FEA43039B184FEA83039B1820
:1002E0001B1803F108034FEA8303CB185B68002B4C
:1002F0003BD1F878B978FC78BA7840F6D403C2F2EA
:1003000000034FF0340505FB04F41B199B1803F19F
:1003100008031A7940F6D403C2F200034FF0340404
:1003200004FB00F01B185B1803F108031A70F8783F
:10033000B978FC78BA7840F6D403C2F200034FF0E3
:10034000340505FB04F41B199B1803F108031A7903
:1003500040F6D403C2F200034FF0340404FB00F073
:100360001B185B1803F110031A707B6803F101037B
:100370007B607B680B2B7FF761AF40F6D003C2F246
:1003800000031B88002B40F0AD8140F6D403C2F27D
:1003900000035B69002B1AD048F27843C0F60003D3
:1003A0001B681A4640F6D403C2F200031B7A13609E
:1003B00048F27843C0F600035B681A4640F6D4035F
:1003C000C2F200031B7A4FEA5303DBB2136040F61C
:1003D000D403C2F200039B69002B1AD048F2784381
:1003E000C0F600039B681A4640F6D403C2F200032D
:1003F0005B7A136048F27843C0F60003DB681A4664
:1004000040F6D403C2F200035B7A4FEA5303DBB237
:10041000136040F6D403C2F20003DB69002B1AD04C
:1004200048F27843C0F600031B691A4640F6D4032D
:10043000C2F200039B7A136048F27843C0F60003CF
:100440005B691A4640F6D403C2F200039B7A4FEA76
:100450005303DBB2136040F6D403C2F200031B6AFD
:10046000002B1AD048F27843C0F600039B691A4665
:1004700040F6D403C2F20003DB7A136048F27843FB
:10048000C0F60003DB691A4640F6D403C2F200034B
:10049000DB7A4FEA5303DBB2136040F6D403C2F2B7
:1004A00000039B6C002B1CD048F27843C0F600037D
:1004B0001B6A1A4640F6D403C2F2000393F83C309C
:1004C000136048F27843C0F600035B6A1A4640F6B0
:1004D000D403C2F2000393F83C304FEA5303DBB27B
:1004E000136040F6D403C2F20003DB6C002B1CD077
:1004F00048F27843C0F600039B6A1A4640F6D403DC
:10050000C2F2000393F83D30136048F27843C0F61E
:100510000003DB6A1A4640F6D403C2F2000393F8E4
:100520003D304FEA5303DBB2136040F6D403C2F20E
:1005300000031B6D002B1CD048F27843C0F600036B
:100540001B6B1A4640F6D403C2F2000393F83E3008
:10055000136048F27843C0F600035B6B1A4640F61E
:10056000D403C2F2000393F83E304FEA5303DBB2E8
:10057000136040F6D403C2F200035B6D002B1CD065
:1005800048F27843C0F600039B6B1A4640F6D4034A
:10059000C2F2000393F83F30136048F27843C0F68C
:1005A0000003DB6B1A4640F6D403C2F2000393F853
:1005B0003F304FEA5303DBB2136040F6D403C2F27C
:1005C0000003DB6F002B1CD048F27843C0F6000319
:1005D0001B6C1A4640F6D403C2F2000393F8703045
:1005E000136048F27843C0F600035B6C1A4640F68D
:1005F000D403C2F2000393F870304FEA5303DBB226
:10060000136040F6D403C2F20003D3F88030002B0D
:100610001CD048F27843C0F600039B6C1A4640F6A3
:10062000D403C2F2000393F87130136048F27843A8
:10063000C0F60003DB6C1A4640F6D403C2F2000396
:1006400093F871304FEA5303DBB2136040F6D403E2
:10065000C2F20003D3F88430002B1CD048F2784358
:10066000C0F600031B6D1A4640F6D403C2F2000325
:1006700093F87230136048F27843C0F600035B6D64
:100680001A4640F6D403C2F2000393F872304FEAE0
:100690005303DBB2136040F6D403C2F20003D3F875
:1006A0008830002B00F08A8148F27843C0F60003BE
:1006B0009B6D1A4640F6D403C2F2000393F87330E0
:1006C000136048F27843C0F60003DB6D1A4640F62B
:1006D000D403C2F2000393F873304FEA5303DBB242
:1006E00013606BE140F6D403C2F200031A8840F6AF
:1006F000D003C2F200031B8812B21BB29A420FD180
:1007000048F27843C0F600031B684FF000021A60FD
:1007100048F27843C0F600035B684FF000021A60AD
:1007200040F6D403C2F200035A8840F6D003C2F266
:1007300000031B8812B21BB29A420FD148F27843D1
:10074000C0F600039B684FF000021A6048F278433D
:10075000C0F60003DB684FF000021A6040F6D403D5
:10076000C2F200039A8840F6D003C2F200031B884D
:1007700012B21BB29A420FD148F27843C0F600037E
:100780001B694FF000021A6048F27843C0F600037C
:100790005B694FF000021A6040F6D403C2F2000316
:1007A000DA8840F6D003C2F200031B8812B21BB2F3
:1007B0009A420FD148F27843C0F600039B694FF08C
:1007C00000021A6048F27843C0F60003DB694FF07C
:1007D00000021A6040F6D403C2F200039A8E40F67B
:1007E000D003C2F200031B8812B21BB29A420FD18F
:1007F00048F27843C0F600031B6A4FF000021A600B
:1008000048F27843C0F600035B6A4FF000021A60BA
:1008100040F6D403C2F20003DA8E40F6D003C2F2EF
:1008200000031B8812B21BB29A420FD148F27843E0
:10083000C0F600039B6A4FF000021A6048F278434A
:10084000C0F60003DB6A4FF000021A6040F6D403E2
:10085000C2F200031A8F40F6D003C2F200031B88D5
:1008600012B21BB29A420FD148F27843C0F600038D
:100870001B6B4FF000021A6048F27843C0F6000389
:100880005B6B4FF000021A6040F6D403C2F2000323
:100890005A8F40F6D003C2F200031B8812B21BB27B
:1008A0009A420FD148F27843C0F600039B6B4FF099
:1008B00000021A6048F27843C0F60003DB6B4FF089
:1008C00000021A6040F6D403C2F20003B3F86820B5
:1008D00040F6D003C2F200031B8812B21BB29A4248
:1008E0000FD148F27843C0F600031B6C4FF00002B2
:1008F0001A6048F27843C0F600035B6C4FF00002C8
:100900001A6040F6D403C2F20003B3F86A2040F63E
:10091000D003C2F200031B8812B21BB29A420FD15D
:1009200048F27843C0F600039B6C4FF000021A6057
:1009300048F27843C0F60003DB6C4FF000021A6007
:1009400040F6D403C2F20003B3F86C2040F6D003A3
:10095000C2F200031B8812B21BB29A420FD148F2B6
:100960007843C0F600031B6D4FF000021A6048F296
:100970007843C0F600035B6D4FF000021A6040F64A
:10098000D403C2F20003B3F86E2040F6D003C2F2E3
:1009900000031B8812B21BB29A420FD148F278436F
:1009A000C0F600039B6D4FF000021A6048F27843D6
:1009B000C0F60003DB6D4FF000021A6040F6D00372
:1009C000C2F200031B8803F101039AB240F6D00380
:1009D000C2F200031A8040F6D003C2F200031B8863
:1009E0001BB2642B25D140F6C803C2F200031B687A
:1009F00003F1010240F6C803C2F200031A6040F698
:100A0000CC03C2F200031B68002B0BD040F6CC03D2
:100A1000C2F200031B6803F1FF3240F6CC03C2F2BE
:100A200000031A6040F6D003C2F200034FF0000248
:100A30001A8007F10C07BD46B0BC704780B582B084
:100A400000AF48F2C063C0F600037B6040F20003D1
:100A5000C2F200033B600BE07B681A683B681A60D7
:100A60003B6803F104033B607B6803F104037B6094
:100A70003A6840F6B403C2F200039A42ECD30C4841
:100A80000C494FF000028842B8BF40F8042BFFF633
:100A9000FAAF4FF46D43CEF200034FF000629A605C
:100AA00000F0D4FB00F0FEF807F10807BD4680BD5A
:100AB000B4080020E409002080B400AFFEE700BFC6
:100AC00080B483B000AF78607B689B889BB24FEAAC
:100AD000C3534FEAD3539BB2184607F10C07BD46E8
:100AE00080BC704780B487B000AF78600B467B80D5
:100AF0004FF00003FB604FF000037B614FF00003F9
:100B0000BB604FF00003FB747B88DBB24FEA5313EA
:100B1000DBB2BB607B8803F01F037B617B694FF016
:100B2000010202FA03F37B61BB68012B06D17B68EB
:100B30009B899BB27A6913407B610FE0BB68022BF3
:100B400006D17B681B8A9BB27A6913407B6105E002
:100B50007B689B8A9BB27A6913407B617B884FEAF2
:100B600013239BB2FB60FB684FF0010202FA03F310
:100B7000FB607B681B889BB2FA681340FB607B6953
:100B8000002B06D0FB68002B03D04FF00103FB7451
:100B900002E04FF00003FB74FB7C184607F11C07D2
:100BA000BD4680BC704700BF80B483B000AF7860A2
:100BB0000B46FB70FB78002B0CD04FF46053C4F253
:100BC00002034FF46052C4F20202116B7A680A43C6
:100BD0001A630DE04FF46053C4F202034FF4605205
:100BE000C4F20202116B7A686FEA02020A401A63C9
:100BF00007F10C07BD4680BC704700BF80B483B0CE
:100C000000AF78600B46FB70FB78002B0CD04FF4E4
:100C10006053C4F202034FF46052C4F20202516CFA
:100C20007A680A435A640DE04FF46053C4F2020339
:100C30004FF46052C4F20202516C7A686FEA020209
:100C40000A405A6407F10C07BD4680BC704700BFDC
:100C500080B483B000AF78600B46FB70FB78002B4C
:100C60000CD04FF46053C4F202034FF46052C4F24C
:100C70000202516A7A680A435A620DE04FF46053E7
:100C8000C4F202034FF46052C4F20202516A7A685D
:100C90006FEA02020A405A6207F10C07BD4680BCA7
:100CA000704700BF2DE9F04F87B006AF00F026FB7C
:100CB00000F038FD4FF0000000F0ACFD03461E468A
:100CC0004FF0010000F0A6FD03461D464FF0020064
:100CD00000F0A0FD03461C464FF0030000F09AFD13
:100CE00003469B464FF0040000F094FD03469A46ED
:100CF0004FF0050000F08EFD034699464FF00600C8
:100D000000F088FD034698464FF0070000F082FD92
:100D10000346CDF800B0CDF804A0CDF80890CDF88A
:100D20000C80049348F25440C0F6000031462A4635
:100D3000234600F081FEBDE780B500AF4FF4807020
:100D40004FF00101FFF784FF4FF480704FF0000176
:100D5000FFF77EFF80BD00BF80B485B000AF786034
:100D600039604FF00003FB604FF00003FB727B68BB
:100D70005B68FB60FB6823F0407323F48073FB60C7
:100D80003B681B794FEA03223B681B681343FA68F0
:100D90001343FB607B68FA685A607B689B68FB6062
:100DA000FA684FF2FD73CCF2FF031340FB603B681F
:100DB0001A693B68DB681A433B689B681A433B68C7
:100DC0005B794FEA43031343FA681343FB607B6884
:100DD000FA689A607B68DB6AFB60FB6823F4700347
:100DE000FB603B681B7D03F1FF33DAB2FB7A1343F0
:100DF000FB72FB7A4FEA0353FA681343FB607B688C
:100E0000FA68DA6207F11407BD4680BC704700BF7C
:100E100080B485B000AF78604FF00003FB604FF402
:100E20000C53C4F201035B68FB60FA6843F2E00311
:100E3000CFF6FC731340FB607B681A687B685B68C5
:100E40001A437B689B681A437B68DB681343FA6824
:100E50001343FB604FF40C53C4F20103FA685A6069
:100E600007F11407BD4680BC704700BF80B483B053
:100E700000AF78600B46FB70FB78002B06D07B68D8
:100E80009B6843F001027B689A6005E07B689B6881
:100E900023F001027B689A6007F10C07BD4680BC15
:100EA000704700BF80B485B000AF7860F970BA7049
:100EB0007B704FF00003FB604FF00003BB60FB78DA
:100EC000092B27D97B68DB68FB60FA7813464FEA69
:100ED00043039B18A3F11E034FF0070202FA03F32A
:100EE000BB60BB686FEA0303FA681340FB60797864
:100EF000FA7813464FEA43039B18A3F11E0301FA45
:100F000003F3BB60FA68BB681343FB607B68FA6855
:100F1000DA6022E07B681B69FB60FA7813464FEACF
:100F200043039B184FF0070202FA03F3BB60BB6850
:100F30006FEA0303FA681340FB607978FA78134686
:100F40004FEA43039B1801FA03F3BB60FA68BB68DE
:100F50001343FB607B68FA681A61BB78062B27D8BD
:100F60007B685B6BFB60BB7803F1FF3213464FEA93
:100F700083039B184FF01F0202FA03F3BB60BB68A8
:100F80006FEA0303FA681340FB60F978BB7803F15A
:100F9000FF3213464FEA83039B1801FA03F3BB6049
:100FA000FA68BB681343FB607B68FA685A6351E0D8
:100FB000BB780C2B27D87B681B6BFB60BA78134679
:100FC0004FEA83039B18A3F123034FF01F0202FA99
:100FD00003F3BB60BB686FEA0303FA681340FB606E
:100FE000F978BA7813464FEA83039B18A3F12303D9
:100FF00001FA03F3BB60FA68BB681343FB607B68CC
:10100000FA681A6326E07B68DB6AFB60BA781346ED
:101010004FEA83039B18A3F141034FF01F0202FA2A
:1010200003F3BB60BB686FEA0303FA681340FB601D
:10103000F978BA7813464FEA83039B18A3F141036A
:1010400001FA03F3BB60FA68BB681343FB607B687B
:10105000FA68DA6207F11407BD4680BC704700BF2A
:1010600080B483B000AF78607B689B6843F08042B7
:101070007B689A6007F10C07BD4680BC704700BFD3
:1010800080B483B000AF78607B68DB6C9BB218469D
:1010900007F10C07BD4680BC704700BF80B485B027
:1010A00000AF78600B46FB704FF00003FB737B686A
:1010B0001A68FB781340002B03D04FF00103FB7339
:1010C00002E04FF00003FB73FB7B184607F11407A7
:1010D000BD4680BC704700BF80B487B000AF786069
:1010E00039604FF000037B614FF000033B614FF02C
:1010F0000003FB604FF000037B6186E07B694FF0EB
:10110000010202FA03F33B613B681A683B69134032
:10111000FB60FA683B699A4273D17B681A687B6905
:101120004FEA43034FF0030101FA03F36FEA0303AD
:101130001A407B681A607B681A683B681B791946FD
:101140007B694FEA430301FA03F31A437B681A6091
:101150003B681B79012B03D03B681B79022B34D1F0
:101160007B689A687B694FEA43034FF0030101FAF9
:1011700003F36FEA03031A407B689A607B689A68FE
:101180003B685B7919467B694FEA430301FA03F335
:101190001A437B689A607B685A687B699BB24FF000
:1011A000010101FA03F36FEA03031A407B685A60F6
:1011B0007B685A683B689B7919467B699BB201FA48
:1011C00003F39BB21A437B685A607B68DA687B69D9
:1011D0009BB24FEA43034FF0030101FA03F36FEAB6
:1011E00003031A407B68DA607B68DA683B68DB7966
:1011F00019467B694FEA430301FA03F31A437B68FC
:10120000DA607B6903F101037B617B690F2B7FF659
:1012100075AF07F11C07BD4680BC7047ABBE00F040
:1012200002B800207047002A00F001801060012001
:10123000704706980188044A914240F003800430C8
:1012400006907047FEE70000ABBE000080B500AF1F
:101250004FF46D43CEF200034FF46D42CEF2000224
:10126000D2F8882042F47002C3F888204FF460530B
:10127000C4F202034FF46052C4F20202126842F058
:1012800001021A604FF46053C4F202034FF00002EF
:101290009A604FF46053C4F202034FF46052C4F2F8
:1012A0000202126822F0847222F480321A604FF433
:1012B0006053C4F2020343F21002C2F200425A60C9
:1012C0004FF46053C4F202034FF46052C4F20202BE
:1012D000126822F480221A604FF46053C4F20203B1
:1012E0004FF00002DA6000F0C1F84FF46D43CEF227
:1012F00000034FF000629A6080BD00BF80B487B0E9
:1013000000AF4FF000033B614FF000037B614FF0F3
:101310000203FB604FF00003BB604FF002037B60F1
:101320004FF46053C4F202039B6803F00C033B616B
:101330003B69042B0DD0082B15D0002B69D140F24E
:101340000003C2F200034FF41052C0F2F4021A601C
:1013500069E040F20003C2F200034FF49052C0F281
:101360007A021A605FE04FF46053C4F202035B68D4
:1013700003F480034FEA9353BB604FF46053C4F20D
:1013800002035B6803F03F037B60BB68002B14D053
:101390004FF49053C0F27A037A68B3FBF2F24FF441
:1013A0006053C4F20203596847F6C0730B404FEA1A
:1013B000931303FB02F37B6113E04FF41053C0F26D
:1013C000F4037A68B3FBF2F24FF46053C4F2020301
:1013D000596847F6C0730B404FEA931303FB02F3BF
:1013E0007B614FF46053C4F202035B6803F4403343
:1013F0004FEA134303F101034FEA4303FB607A69A9
:10140000FB68B2FBF3F240F20003C2F200031A6081
:1014100009E040F20003C2F200034FF41052C0F2A0
:10142000F4021A6000BF4FF46053C4F202039B68D9
:1014300003F0F0034FEA131240F20403C2F2000378
:101440009B5CDBB23B6140F20003C2F200031A680E
:101450003B6922FA03F240F20003C2F200031A6071
:1014600007F11C07BD4680BC704700BF80B483B045
:1014700000AF4FF000037B604FF000033B604FF480
:101480006053C4F202034FF46052C4F202021268C5
:1014900042F480321A604FF46053C4F202031B68B6
:1014A00003F400333B607B6803F101037B603B681E
:1014B000002B03D17B68B3F5A06FECD14FF46053E0
:1014C000C4F202031B6803F40033002B03D04FF077
:1014D00001033B6002E04FF000033B603B68012BDF
:1014E00040F082804FF46053C4F202034FF4605224
:1014F000C4F20202126C42F080521A644FF4E043CC
:10150000C4F200034FF4E042C4F20002126842F455
:1015100080421A604FF46053C4F202034FF46052E9
:10152000C4F2020292689A604FF46053C4F202035C
:101530004FF46052C4F20202926842F400429A6090
:101540004FF46053C4F202034FF46052C4F202023B
:10155000926842F4A0529A604FF46053C4F20203BE
:1015600042F60422C0F240725A604FF46053C4F253
:1015700002034FF46052C4F20202126842F0807219
:101580001A6000BF4FF46053C4F202031B6803F0FB
:101590000073002BF6D04FF47053C4F2020340F2F4
:1015A00005721A604FF46053C4F202034FF46052A4
:1015B000C4F20202926822F003029A604FF4605370
:1015C000C4F202034FF46052C4F20202926842F085
:1015D00002029A6000BF4FF46053C4F202039B689A
:1015E00003F00C03082BF6D107F10C07BD4680BCB5
:1015F000704700BF80B485B000AFF860B9607A6012
:101600003B604FF0FF33184607F11407BD4680BC1E
:10161000704700BF80B485B000AFF860B9607A60F1
:101620003B604FF0FF33184607F11407BD4680BCFE
:10163000704700BF80B586B000AFF860B9607A60CF
:101640003B604FF000037B610CE07B681B787A689D
:1016500002F101027A601846FEF796FD7B6903F1FC
:1016600001037B617A693B689A42EED33B68184676
:1016700007F11807BD4680BD80B483B000AF786025
:1016800039604FF0FF33184607F10C07BD4680BCA8
:10169000704700BF80B485B000AF7860396040F615
:1016A000DC13C2F200031B68002B08D140F6DC13E8
:1016B000C2F2000340F6E812C2F201021A6040F6DC
:1016C000DC13C2F200031B68FB6040F6DC13C2F2BD
:1016D00000031A683B68D21840F6DC13C2F200031C
:1016E0001A60FB68184607F11407BD4680BC7047B6
:1016F00080B485B000AFF860B9607A604FF0FF3316
:10170000184607F11407BD4680BC704780B483B00B
:1017100000AF78604FF00103184607F10C07BD4693
:1017200080BC704780B58CB000AF4FF007004FF021
:101730000101FFF739FA4FF480704FF00101FFF714
:101740005DFA4FF0030387F82C304FF0000387F861
:101750002F304FF00C03BB6207F128034FF000005D
:10176000C4F202001946FFF7B7FC4FF00303BB6257
:1017700007F128034FF48060C4F202001946FFF716
:10178000ABFC4FF03603BB6207F128034FF4006057
:10179000C4F202001946FFF79FFCFFF7CDFA4FF0A5
:1017A00000033B604FF000037B604FF00003BB6021
:1017B0004FF00003FB603B461846FFF729FB4FF054
:1017C00000033B614FF000033B754FF000037B7556
:1017D0004FF00003BB614FF00003FB614FF00003CB
:1017E0003B624FF0010387F8243007F110034FF4F8
:1017F0000050C4F201001946FFF7AEFA4FF4005052
:10180000C4F201004FF00101FFF730FB07F1300790
:10181000BD4680BD80B582B000AF0346FB71FB7949
:10182000002B0CD14FF40050C4F201004FF0020124
:101830004FF001024FF00303FFF734FB6EE0FB793A
:10184000012B0CD14FF40050C4F201004FF0030102
:101850004FF001024FF00303FFF724FB5EE0FB793A
:10186000022B0CD14FF40050C4F201004FF00801DC
:101870004FF001024FF00303FFF714FB4EE0FB793A
:10188000032B0CD14FF40050C4F201004FF00901BA
:101890004FF001024FF00303FFF704FB3EE0FB793A
:1018A000042B0CD14FF40050C4F201004FF00B0197
:1018B0004FF001024FF00303FFF7F4FA2EE0FB793B
:1018C000052B0CD14FF40050C4F201004FF00C0175
:1018D0004FF001024FF00303FFF7E4FA1EE0FB793B
:1018E000062B0CD14FF40050C4F201004FF00E0152
:1018F0004FF001024FF00303FFF7D4FA0EE0FB793B
:10190000072B0BD14FF40050C4F201004FF00F0130
:101910004FF001024FF00303FFF7C4FA4FF40050F9
:10192000C4F20100FFF79CFB00BF4FF40050C4F26B
:1019300001004FF00201FFF7B1FB0346002BF4D08A
:101940004FF40050C4F20100FFF79AFB034618461B
:1019500007F10807BD4680BD98B500AF4FF4884039
:10196000C4F2000040F22551FFF7BCF80346012BFA
:1019700028D140F67013C2F200031C684FF488406F
:10198000C4F20000FFF79CF80346DAB240F6701389
:10199000C2F200031B191A7240F67013C2F2000360
:1019A0001B6803F101031A4640F67013C2F20003EC
:1019B0001A60102A06D140F67013C2F200034FF0ED
:1019C00000021A6098BD00BF98B500AF4FF4904078
:1019D000C4F2000040F22551FFF784F80346012BC2
:1019E00028D140F68813C2F200031C684FF49040DF
:1019F000C4F20000FFF764F80346DAB240F6881339
:101A0000C2F200031B191A7240F68813C2F20003D7
:101A10001B6803F101031A4640F68813C2F2000363
:101A20001A60102A06D140F68813C2F200034FF064
:101A300000021A6098BD00BF0FB400B540F24042EA
:101A400083B0C2F2000204AB106853F8042B816823
:101A5000019300F005F803B05DF804EB04B07047A3
:101A60002DE9F04FC1B01D4606911446079003F0D2
:101A700031FC0068109004F0B9FE002112900020A3
:101A8000CDE9140107990C9519B18B6B002B00F06F
:101A90000981069A938903F4005001B239B9069876
:101AA000426E43F4005322F400518381416603F0F7
:101AB000080002B2002A00F0BE80069908690028DA
:101AC00000F0B98003F01A020A2A00F0C080002159
:101AD00030ABDFF874950D910493239325912491F5
:101AE000169117910A91A3469A469BF80040002C44
:101AF00000F0DC80252C00F0D9800BF1010501E01D
:101B0000252A04D02C4601352278002AF8D1CBEBC7
:101B100004058DB1249B2598CAF800B05A1C4119C0
:101B2000072ACAF80450259124920AF1080A00F302
:101B3000AF800A9841190A912378002B00F0948015
:101B400000264FF0FF3E94F8018009968DF86B60F7
:101B5000059604F1010B20212B2276460BF1010B97
:101B6000A8F12003582B00F2DD82DFE813F0ED022C
:101B7000DB02DB02F702DB02DB02DB02DB02DB0261
:101B8000DB022403A100DB025D00A600DB02C10032
:101B900030033003300330033003300330033003AD
:101BA0003003DB02DB02DB02DB02DB02DB02DB02F7
:101BB000DB02DB02DB028801C800DB02C800DB02BB
:101BC000DB02DB02DB028101DB02DB02CD01DB0297
:101BD000DB02DB02DB02DB02E701DB02DB02FD01F1
:101BE000DB02DB02DB02DB02DB02DB02DB02DB020D
:101BF000DB02DB02C602AA02C800C800C800BF029E
:101C0000AA02DB02DB025802DB026F027D029102B4
:101C10002202DB022902DB02FE02DB02DB021003EE
:101C200009980C9340420990059B43F004000590ED
:101C30009BF8008092E70798069901F0B7FD00BB7A
:101C4000069B9B8903F01A020A2A7FF440AF06998B
:101C5000B1F90E000028FFF63AAF079822462B464E
:101C600001F068FD0A900FE0259820B107980699C9
:101C700023AA04F0EBFD06998A8902F0400318B20A
:101C800010B14FF0FF310A910A9841B0BDE8F08FD2
:101C90000798069923AA04F0D9FD0028EBD10DF18D
:101CA000C00A46E7084603F06DF9F2E65C4643E7F2
:101CB0008DF86B209BF8008050E7584610F8018B98
:101CC000B8F12A0F01F0FB84A8F130030026092B9C
:101CD00001F2838410F8018B06EB860603EB4606BF
:101CE000A8F13003092B8346F4D946EAE67637E7B4
:101CF000059840F0800305939BF800802EE70C9D2B
:101D0000CDF83C80EA1D22F0070404F108010C9193
:101D1000256864682A462346B6462846214643EC91
:101D2000102BCDE91401CDF80CE004F0DDFC012806
:101D3000DDF80CC041F0AE80284621460022002389
:101D400006F052F8002841F086839DF86B30BA4CBB
:101D5000059DBA4E0F980322002108920E91472844
:101D6000CCBFB046A04625F0800203210024059296
:101D70000B91119413B10898441C0894059911F023
:101D8000020502D0089A901C0890059C14F0840665
:101D900040F0D282099F089BFF1A002F40F3CC82AB
:101DA000102F41F3B4822598A54A249BCAF800203D
:101DB000102413920219581CA7F1110C0728CAF815
:101DC0000440CCF3001C259224900AF1080A00F389
:101DD000D285103F102F40F31D82BCF1000F12D0AE
:101DE000013048F238511032C0F6000107288AE865
:101DF0001200259224900AF1080A00F3CE85103FC4
:101E0000102F40F3078218951996079D069E12E041
:101E1000481C48F238511032C0F6000107288AE801
:101E200012000AF1080A2592249000F3E181103F84
:101E3000102F40F3ED81411C48F238501032C0F6AB
:101E4000000007298AE81100A7F110070AF1080A23
:101E500025922491DCDD2846314623AA04F0F6FCC5
:101E600000287FF408AF259A24990DF1C00ACFE726
:101E7000059B43F0080005909BF800806EE6059BEB
:101E8000CDF83C80B64643F01006059605988606C8
:101E900040F11E810C9AD41D24F00700D0E90023E4
:101EA00008300C9014461D46002A73F10000C0F261
:101EB000E6870123BEF1000F03DB059E26F08002BA
:101EC000059254EA050240F03B83BEF1000F40F05A
:101ED0003783002B40F03985059DE90740F13585B2
:101EE00040AC302004F8410D049B191B0B91A04617
:101EF0000B9D9DF86B30CDF838E07545B8BF754641
:101F000000260895119635E7059ACDF83C8042F0F9
:101F100010040594059B13F02003B64600F0AC8036
:101F20000C9BDC1D24F00701D1E9004501F10806F6
:101F30000C96002300208DF86B00BBE7059CCDF8C4
:101F40003C8044F01005059505988506B64640F19D
:101F500013810C9DE81D20F0070101F108060C9685
:101F6000D1E900450123E5E7059D3648CDF83C80E1
:101F7000A906B646169040F113810C9CE31D23F090
:101F8000070505F10800D5E900450C900599CE0735
:101F900040F1E18454EA050300F0DD840F9A41F03A
:101FA0000203302605938DF86C608DF86D200223B6
:101FB000C0E7059B43F0200005909BF80080CDE52D
:101FC0000C9DCDF83C80B44600268DF86B60D5F8AA
:101FD00000802C1DB8F1000F01F02982BCF1000F28
:101FE0004046C1F25E8162463146CDF80CC003F036
:101FF00099FCDDF80CC0002801F0DD82C8EB00037D
:1020000063450B930E9641F3DA802CEAEC7008904E
:102010009DF86B300C94CDF82CC01196AAE69BF875
:102020000080B8F16C0F5B4601F02281059840F00A
:102030001003059392E500BF488500084C85000811
:1020400038850008588500088C850008059CA10685
:1020500040F1D4870C9A0A980C9C1368C117221D72
:10206000186059600C9240E5059BCDF83C8013F058
:102070002003B6467FF454AF059D15F0100000F024
:10208000AF870C980568021D2C460C92002551E77D
:102090000C9C0C9A05992568B646161DA44A0C9608
:1020A0004FF0780841F0020330202C4605938DF85C
:1020B0006D8000258DF86C0016920223CDF83C80CF
:1020C00038E70598CDF83C80B64686063FF5E2AE87
:1020D000059DED0640F1A2870C9805682C460C99E9
:1020E000E5170E1D22462B460C96DDE6059B43F0B8
:1020F000400005909BF8008030E50C9D0C9A2E68FE
:10210000CDF83C8001240021131D8DF86B1008943C
:102110000C938DF898600B940DF1980800230E93A2
:1021200011932BE64046CDF83C8000283FF49CAD4F
:102130000125002401268DF8988008958DF86B40C4
:102140000B960DF19808E9E79DF86B30002B40F0F5
:1021500085878DF86B109BF80080FFE4059B43F0AA
:10216000010005909BF80080F8E40598CDF83C80CC
:102170008506B6463FF5EDAE0599CC0640F162877F
:102180000C9A131D0C93146800250123D2E6059DBB
:10219000674CCDF83C80A906B64616943FF5EDAEE7
:1021A000059EF20640F143870C9E3168321D0C46B5
:1021B00000250C92EAE60C980C9B0068043300287A
:1021C0000990FFF62DAD9BF800800C93C6E45846AD
:1021D0000023A8F1300510F8018BA8F1300403EBBF
:1021E0008303092C05EB43038346F2D90993B7E433
:1021F0002846314623AA04F029FB00287FF43BAD92
:10220000103F102F259A24980DF1C00A3FF713AE06
:10221000189D199ED419431C139A072B8AE8840031
:10222000259424930AF1080A40F3878007980699B9
:1022300023AA04F00BFB00287FF41DAD9DF86B1062
:10224000259C0DF1C00A00297BD17DB1249A501C38
:10225000023402211BAB0728CAF80030CAF8041068
:10226000259424900AF1080A00F33383802E00F0AD
:1022700028820E9D0B982D1A002D40F3A880102D5A
:1022800040F3F086249ACAF8009010270132A5F195
:102290001103E419072ACAF80470264E25942492E3
:1022A000C3F300130AF1080A00F3F782103D102D62
:1022B00076DD7BB101321034072ACAF80090CAF8E3
:1022C0000470259424920AF1080A00F3F582103D67
:1022D000102D65DD53462146C2463446DDF8188090
:1022E000079E0CE0421CC3F800905F601031083379
:1022F000072A2492259141DC103D102D4CDD501C05
:10230000C3F800905F6010310833072825912490AE
:10231000A5F11005E6DD3046414623AA04F096FA01
:1023200000287FF4A8AC2599249830ABDAE700BFE9
:102330006C8500088C850008259C9DF86B10002991
:1023400083D0249A501C013401210DF16B0307281E
:10235000CAF80030CAF80410259424900AF1080A3B
:102360007FF773AF0798069923AA04F06FFA002845
:102370007FF481AC259C0DF1C00A66E730464146EA
:1023800023AA04F063FA00287FF475AC103D102DE9
:102390002599249A30ABB2DCD04626469A460C46A4
:1023A000501C64190728CAF80060CAF80450259424
:1023B00024900AF1080A0ADD0798069923AA04F076
:1023C00045FA00287FF457AC259C0DF1C00A059909
:1023D000CA0500F1DE8024990B9A0B98CAF8008098
:1023E000A4184B1CCAF80400072B259424930AF167
:1023F000080A00F33C82059B5B077ED5099D089A7D
:10240000AD1A002D79DD102D62DD249910274B1CAB
:1024100048F23856C0F60006A5F1110EE419072B54
:10242000CAF80060CAF80470CEF30018259424930B
:102430000AF1080A00F3C483103D102D4ADDB8F1FB
:10244000000F11D0013348F238501034C0F60000AC
:10245000072B8AE88100259424930AF1080A00F3E7
:10246000BC83103D102D35DD2246DDF81C8034463E
:10247000069E10E0013348F238511032C0F60001D8
:10248000072B8AE882000AF1080A2493259245DC8A
:10249000103D102D51DD013348F238501032C0F696
:1024A0000000072B8AE88100A5F110050AF1080A4F
:1024B00025922493DEDD4046314623AA04F0C6F976
:1024C00000287FF4D8AB259A249B0DF1C00AD1E7F0
:1024D000249BAC4E581C2C190728CAF80060CAF877
:1024E00004502594249008DD0798069923AA04F047
:1024F000ADF900287FF4BFAB259C0A99089A099B87
:102500009A42ACBF8918C9180A91002C40F0BB81CF
:10251000002424940DF1C00AFFF7E7BA4046314683
:1025200023AA04F093F900287FF4A5AB103D102DE9
:10253000259A249B0DF1C00AADDC26461446C9E756
:10254000012B00F0F381022B00F0CF810DF1BF06CB
:102550000722E70804EA020047EA4577EB08303033
:102560003C461D46C0B254EA0501B046307006F143
:10257000FF36EED1059CE407454605D5302803D04B
:102580003021B04605F8011C049AC8EB02030B93F6
:10259000AEE40F9A652A40F32381DDE9140100229D
:1025A000002305F017FC002800F005822498764AE5
:1025B000431C01340121072BCAF80020CAF804107B
:1025C000259424930AF1080A00F352851C980D9B68
:1025D000984203DB059AD3077FF50DAF249B129831
:1025E0001099CAF804005A1C2418072ACAF80010C7
:1025F000259424920AF1080A00F344860D9D013DBA
:10260000002D7FF7F8AE102D40F3D08224990D9F56
:10261000CAF8009010260131123FA4190729CAF800
:102620000460DFF8688125942491C7F300170AF14C
:10263000080A00F3B686103D102D40F3BA8287B128
:10264000013110340729CAF80090CAF804602594B3
:1026500024910AF1080A00F3B286103D102D40F3D0
:10266000A8822246079F069C10E0411C10320729D1
:10267000CAF80090CAF804600AF1080A2491259269
:1026800000F36C81103D102D40F3F084481C103293
:102690000728CAF80090CAF80460A5F110050AF1ED
:1026A000080A25922490E0DD3846214623AA04F04A
:1026B000CDF800287FF4DFAA259A24980DF1C00AEE
:1026C000D3E7099D089AAD1A002D7FF7D2AD102DE2
:1026D00040F34F87249B2D4ECAF800900133139688
:1026E0001026A5F11107A419072BCAF80460C7F337
:1026F0000017259424930AF1080A00F36483103D1F
:10270000102D55DD7FB101331034072BCAF800902E
:10271000CAF80460259424930AF1080A00F3808320
:10272000103D102D44DD2246079F069C0EE04B1CF9
:102730001032072BCAF80090CAF804600AF1080AA0
:102740002493259224DC103D102D30DD591C1032CD
:102750000729CAF80090CAF80460A5F110050AF12B
:10276000080A25922491E2DD3846214623AA04F086
:102770006DF800287FF47FAA259A24990DF1C00AEC
:10278000D5E700BF38850008888500088C850008DB
:102790003846214623AA04F059F800287FF46BAA92
:1027A000103D102D259A249B0DF1C00ACEDC144655
:1027B000591C1398641907298AE82100259424914B
:1027C0000AF1080A7FF755AD0798069923AA04F085
:1027D0003DF800287FF44FAA259C0DF1C00A48E57A
:1027E0000D9D012D40F3FC82249ACAF80080551CEF
:1027F00001340123072DCAF804300AF1080A259490
:10280000249500F31A83129B10980135E418072DC4
:102810008AE809000AF1080A2594249500F31A832E
:10282000DDE914010022002305F0D4FA002840F06D
:102830004B810D9808F10102431E8AE80C00E41850
:102840000135072D259424950AF1080A00F3DB824F
:102850001799013564181FAA072DCAF80020CAF875
:1028600004100AF1080A259424957FF7C4AD07984F
:10287000069923AA03F0EAFF00287FF4FCA90DF1D2
:10288000C00A259CB7E50798069923AA03F0DEFF46
:1028900000283FF43DAEFFF7EEB907980699039381
:1028A00023AA03F0D3FF039B00287FF4E4A9259C0F
:1028B000249A0DF1C00AF9E40798069923AA03F0B7
:1028C000C5FF00287FF4D7A9259C249A0DF1C00AE2
:1028D000FDE40798069923AA03F0B8FF00287FF4C7
:1028E000CAA9259C0DF1C00AC0E41698CDF820E0D5
:1028F0000DF1BF010F26002704EA06028318240900
:1029000044EA057C2A09884664461978154654EA43
:10291000050288F8001008F1FF31EDD1049DDDF8C3
:1029200020E0C8EB05060B96FFF7E2BA002D08BFC2
:102930000A2C80F05F8140AB303403F8414D049A9B
:10294000D11A0B919846FFF7D3BACDF82CE00DF1D0
:10295000C008FFF7CDBA0223FFF7ECBA384621468C
:1029600023AA03F073FF00287FF485A9259A2499F0
:102970000DF1C00A86E607980699CDF80CC023AA87
:1029800003F064FFDDF80CC000287FF474A9259AD9
:1029900024980DF1C00AFFF71CBA0798069923AADC
:1029A00003F054FF00287FF466A9259A24980DF1BE
:1029B000C00AFFF724BA1C9E002E40F366830D9DCB
:1029C000119B0D989D42A8BF1D4608EB0001002DEC
:1029D0000B910DDD249ACAF80080531C6419072B53
:1029E000CAF80450259424930AF1080A00F3CC8411
:1029F000119825EAE575451B002D40F33681102D11
:102A000040F31A81249B8B4FCAF8009010260133A3
:102A1000A5F11102A419072BCAF804600E9725949A
:102A20002493C2F300170AF1080A00F39F84103DB3
:102A3000102D40F3048187B101331034072BCAF8FD
:102A40000090CAF80460259424930AF1080A00F360
:102A5000C484103D102D40F3F28021465246079F5A
:102A6000069C0DE0431CC2F80090566010310832FD
:102A7000072B249325911BDC103D102D40F35B8424
:102A8000581CC2F800905660103108320728259172
:102A90002490A5F11005E5DD3846214623AA03F070
:102AA000D5FE00287FF4E7A82599249830AAD9E715
:102AB0003846214623AA03F0C9FE00287FF4DBA88C
:102AC0002599249B30AAD7E70D9E013E002E7FF763
:102AD000BFAE102E40F3CB810D99564ACAF8009034
:102AE00010270135A1F11208E419072DCAF8047066
:102AF0000B9225942495C8F300180AF1080A00F3F4
:102B00000C84103E102E40F3B481B8F1000F10D0A9
:102B100001351034072DCAF80090CAF804702594C6
:102B200024950AF1080A00F31384103E102E40F396
:102B3000A0812346DDF81C80069C0FE00135103390
:102B4000072DCAF80090CAF804700AF1080A259304
:102B500024951EDC103E102E40F3A1830135103366
:102B6000072DCAF80090CAF80470A6F110060AF101
:102B7000080A25932495E1DD4046214623AA03F067
:102B800065FE00287FF477A8259B249D0DF1C00ADF
:102B9000D4E74046214623AA03F058FE00287FF4DC
:102BA0006AA8259B249D0DF1C00AD3E72499DFF87C
:102BB000848064194B1CCAF80080CAF8045013E4DE
:102BC0000798069923AA03F041FE00287FF453A832
:102BD000259C249B0DF1C00A2EE40798069923AA90
:102BE00003F034FE00287FF446A8259C249B0DF1B9
:102BF000C00A36E40DF1BF067746204629460A2270
:102C0000002305F041F930323270204629460A226D
:102C1000002305F039F904460D4654EA0501B04693
:102C200006F1FF36E9D10498C8EB0004BE460B94C8
:102C3000FFF75EB98C8500089549249B0E91591CBD
:102C40000E98641907298AE82100259424910AF135
:102C5000080A0ADD0798069923AA03F0F7FD002861
:102C60007FF409A8259C0DF1C00A1C9B0D98119FAB
:102C7000834247447CDB059AD10779D40B9E0D9A99
:102C8000F61BD21AB242B8BF1646002E0DDD2499AB
:102C9000CAF80070481CA4190728CAF804602594D3
:102CA00024900AF1080A00F3A68326EAE671551A71
:102CB000002D7FF7A0AB102D7FF778AF2498CAF8CE
:102CC00000901026411CA5F11107A4190729CAF884
:102CD0000460DFF8BC8125942491C7F300170AF142
:102CE000080A00F39783103D102D7FF762AF87B17C
:102CF000013110340729CAF80090CAF804602594FD
:102D000024910AF1080A00F3B383103D102D7FF7D8
:102D100050AF2246079F069C0FE0591C103207292E
:102D2000CAF80090CAF804600AF1080A24912592B2
:102D30003CDC103D102D40F399814B1C1032072BC9
:102D4000CAF80090CAF80460A5F110050AF1080A53
:102D500025922493E1DD3846214623AA03F076FD2F
:102D600000287EF488AF259A249B0DF1C00AD4E791
:102D7000249A10991298CAF800102418511C12981D
:102D80000729CAF80400259424910AF1080A7FF75C
:102D900075AF0798069923AA03F058FD00287EF422
:102DA0006AAF1C9B259C0DF1C00A67E73846214697
:102DB00023AA03F04BFD00287EF45DAF259A2499E9
:102DC0000DF1C00AB5E70798069923AA03F03EFD66
:102DD00000287EF450AF259C249B0DF1C00A8EE4A0
:102DE000059BDA073FF500AD2498CAF80080451C22
:102DF00001340121072DCAF804100AF1080A2594AC
:102E000024957FF725AD0798069923AA03F01EFDA8
:102E100000287EF430AF0DF1C00A259C249D17E5F3
:102E20000798069923AA03F011FD00287EF423AF2A
:102E3000259C249B0DF1C00A72E40798069923AAE9
:102E400003F004FD00287EF416AF259C249D0DF1AF
:102E5000C00AD8E40798069923AA03F0F7FC0028D3
:102E60007EF409AF259C249D0DF1C00AD8E40848E2
:102E70000B900B9BA41901358AE84800E1E42D2151
:102E8000644265EB45058DF86B100123FFF712B81E
:102E90008C8500082A46234643EC102BCDF80CC045
:102EA00003F022FCDDF80C80002800F07281B8F1FC
:102EB000FF3F00F0BC830F9F672F00F08883472FF0
:102EC00000F08583059A002C42F480711391C0F2C2
:102ED000968300260E960F9F662F00F04F83462F95
:102EE00000F04C83652F00F09F83452F00F09C83FA
:102EF00047462A4623461DA81EA943EC102B0090E6
:102F000001913A4602210798CDF80C801CAB00F0E5
:102F100027FE0F9ADDF80CC0672A804601D0472AA9
:102F200003D1059EF00740F185830F9B462B08EBEC
:102F3000070600F039832846214600220023CDF8F9
:102F40000CC004F047FFDDF80CC0E8B91E9DAE428E
:102F500040F2E4832B46302403F8014BEA43B018D7
:102F6000B3421E9300F001010DD021B10133B342F1
:102F70006C701E9307D01D4605F8014B5C706B1CEE
:102F8000B3421E93F7D11E460F9CC8EB0606672C72
:102F90000D9600F07A82472C00F077820F9A662A0D
:102FA00040F0BE831C9A002A40F39783BCF1000FC7
:102FB00040F07C83059EF50700F1788322EAE274F5
:102FC00008940B9211920E9D002D00F03E821399F1
:102FD0002D2400208DF86B4005910E90FEF7CBBE9E
:102FE000059911F0400300F015810C990C9C0E1D01
:102FF00024880C9603460025FEF79CBF0599CA0657
:1030000000F10081059B5B0640F12A820C980A9A28
:103010000368041D0C941A80FEF767BD059A5406D8
:1030200040F1E7800C9BB3F90040FFF758B80599D1
:103030004B0640F1D7800C98051D0C95048800259F
:10304000FEF7A4BF059E700640F1C3800C990E1DCB
:103050000C880C9601230025FEF76CBF9BF80080BE
:10306000FEF77CBD249AB54EFFF79AB91446A0E549
:103070000798069923AA03F0E9FB00287EF4FBAD2C
:10308000259C0DF1C00AFFF7A1BA2498AC4A431C55
:1030900001340121072BCAF80020CAF80410259436
:1030A00024930AF1080A00F3C680002E00F0BA80CB
:1030B00024981299109ACAF80410431C6418072B1C
:1030C000CAF800200AF1080A2594249300F38982A3
:1030D0007642002E40F30B81102E40F3EF80102734
:1030E00001339649CAF80090A6F11105E419072B9F
:1030F000CAF804700B9125942493C5F300150AF1C6
:10310000080A00F39982103E102E40F3D98085B151
:1031100001331034072BCAF80090CAF804702594C4
:1031200024930AF1080A00F39482103E102E40F313
:10313000C7802046079D069C10E001331030072B06
:10314000CAF80090CAF804700AF1080A259024937E
:1031500000F38180103E102E40F356820133103070
:10316000072BCAF80090CAF80470A6F110060AF1FD
:10317000080A25902493E0DD2846214623AA03F07F
:1031800065FB00287EF477AD2598249B0DF1C00ADD
:10319000D3E76C4D6C4A0F990E9005989DF86B30F3
:1031A00003264729CCBF9046A8460E9D089620F0DE
:1031B0008004032605940B961195FEF7DBBD0B9D4D
:1031C0009DF86B300C9425EAE57208921196FEF793
:1031D000D1BD0C9A1368101D1C4600250C900123CC
:1031E000FEF7A8BE0C9A131D14680C930025FEF779
:1031F000CDBE0C990C680E1DE51722462B460C9689
:10320000FEF752BE0C990A9C0B68081D0C901C60BE
:10321000FEF76BBC0C9E3268301D144600250C90E6
:10322000FEF788BE0D9800287FF442AF059BD807B3
:103230007FF5E1A83CE70798069923AA03F006FB6F
:1032400000287EF418AD1C9E259C0DF1C00A002EAE
:103250007FF42EAFE6E72846214623AA03F0F6FACC
:1032600000287EF408AD2598249B0DF1C00A71E773
:10327000059893F8018040F020000BF1010B0590B8
:10328000FEF76CBC0798069923AA03F0DFFA002822
:103290007EF4F1AC259C0DF1C00AFFF7AFB91C46D6
:1032A000E7E503F0A3FA0B9020EAE0700E96089091
:1032B0009DF86B300C941196FEF75CBD1F4A0B9283
:1032C00001330B9AA419072B8AE844002594249310
:1032D0000AF1080A0BDD0798069923AA03F0B6FA4B
:1032E00000287EF4C8AC259C249B0DF1C00A0D9AE1
:1032F000CAF80080591CA4180729CAF804200AF14A
:10330000080A259424917FF776A8FFF7B0BA0F49F1
:10331000259A24981391FEF77DBF0798069923AA52
:1033200003F094FA00287EF4A6AC259C249D0DF1B0
:10333000C00AFFF7E6BB92460C4680E48C85000885
:1033400088850008508500085485000838850008E5
:103350000798069923AA03F079FA00287EF48BAC2B
:10336000259C249D0DF1C00AFFF7DFBB0798069945
:1033700023AA03F06BFA00287EF47DAC259C249BE5
:103380000DF1C00AFFF753BB0798069923AA03F073
:103390005DFA00287EF46FAC259C0DF1C00AFFF7A2
:1033A00027BB0798069923AA03F050FA00287EF459
:1033B00062AC259C24990DF1C00AFFF73CB907982F
:1033C000069923AA03F042FA00287EF454AC259C07
:1033D00024990DF1C00AFFF740B90798069923AA6E
:1033E00003F034FA00287EF446AC259C249B0DF1B2
:1033F000C00AFFF72EBB0798069923AA03F026FA06
:1034000000287EF438AC1C9D0D9B259C5A1B0DF1A9
:10341000C00A4AE40798069923AA03F017FA00287D
:103420007EF429AC259C24990DF1C00A5BE4BCF123
:10343000060F34BF6646062626EAE6710B9608910B
:103440000C94DFF8EC82FEF769BE139A9DF86B309E
:103450000592FEF78FBC2D238DF86B30FEF777BCFD
:103460000C980A990468021D0C922160FEF73DBB7E
:103470000798069923AA03F0E9F900287EF4FBAB2C
:10348000259C24990DF1C00A3FE41C9AD11C1346D7
:1034900001DB94455FDA0F9A951E0F95013B0F9E55
:1034A0001C93002B8DF87C60C0F233812B248DF8A7
:1034B0007D40092B40F3DA8046F267660DF18A0100
:1034C000C6F2666686FB0325DA17C2EBA50404EB99
:1034D00084000A46A3EB400303F130011170511E32
:1034E000092C2346EEDC30330DF18B05D8B28D422A
:1034F00002F8010C40F21681AC1AE6070DF17D01CD
:1035000013460DD513468DF87E000DF17E0113F89C
:10351000010B05E013F8014B747013F8010B711CDB
:103520004E1CAB424870F5D140ADC2EB4506F63EAD
:103530001FAA0D9B0D98B41A1919012817940B9105
:1035400040F3D5800B9B591C21EAE17000260B91BA
:103550000890119637E50D9DAA4257DB059BD807C9
:1035600000F19C8022EAE275672608950B920F967F
:1035700028E56E48249B1390FFF71AB92A46234684
:103580001DAF1EA843EC102B0097019042460798F0
:10359000CDF80C8003211CAB00F0E2FADDF80CC082
:1035A000804600EB0C06674698F80010302965D07D
:1035B0001C9FF619BFE42CEAEC710E9008919DF85F
:1035C0006B300C94CDF82CC01190FEF7D3BBB8F142
:1035D000000F08BF4FF0010874E483460026FEF791
:1035E000BFBA0798069923AA03F030F900287EF4A1
:1035F00042AB1C9E259C249B0DF1C00A68E52D233F
:1036000004F100440E9366E4044659E6002A0D9E38
:10361000D4BFC2F1020301239C1924EAE47067219C
:103620000B9408900F91CDE408F1010761E44FF08D
:10363000060847E41E9EA7E40798069923AA03F00C
:1036400005F900287EF417AB259C249B0DF1C00AD8
:1036500059E50798069923AA03F0F8F800287EF4A4
:103660000AAB259C249B0DF1C00A5EE53033302166
:103670008DF87E108DF87F3020AE59E72846214620
:1036800000220023CDF80CC004F0A4FBDDF80CC030
:1036900000288DD1C7F101071C978AE7541C24EA42
:1036A000E47067210B9408900F918BE40CF1010EEC
:1036B00002EB0E0020EAE0710B90089182E40C9B73
:1036C0009BF801801E680433002E0C938346BEF6DF
:1036D00045AA4FF0FF36FEF741BABCF1000F11D1F9
:1036E0000598C4070ED4012108910B916AE4059E48
:1036F00016F001057FF426AF0B9A119522EAE274C9
:10370000089460E40CF1020323EAE3750B93089537
:1037100058E42D205B428DF87D00CAE62E4633E446
:103720001C9BBBE60DF17E0602E700BF8C850008FE
:10373000808500082DE9F0430C46ADF26C4DE76939
:10374000B1F80C90496EB4F80EC007971AAD676ACD
:1037500019914FF480660095049529F0020900251F
:10376000694606958046ADF80C90ADF80EC00997F5
:1037700002960596FEF774F9051E07DB404669467A
:1037800001F01EFB002818BF4FF0FF35BDF80C30CC
:1037900003F0400002B21AB1A18941F04003A381B5
:1037A00028461BB00DF5806DBDE8F08338B52F4B72
:1037B0001B6805460C4613B19A6B002A3DD0A389BD
:1037C00003F0080002B219466AB12269CAB113F0C7
:1037D000010122D103F0020003B203B96169A160C3
:1037E00012B3002038BD03F0100002B212B301F092
:1037F000040108B228BB226943F00803A381002A10
:10380000E5D103F42070B0F5007FE0D028462146D2
:1038100001F066FDA3892269D9E76069002143426E
:10382000A160A361002ADCD1A28902F0800003B26A
:10383000002BD6D04FF0FF3038BD184601F0A2FB68
:10384000BDE7216B49B104F14002914203D0284603
:1038500001F00EFCA3890021216323F024032269D7
:1038600018040021030C61602260C5E740040020B9
:103870002DE9F04F03690C699C4283B0064600F3C2
:103880006B81E01C82008F18B5187B6868685A1C31
:10389000B0FBF2F501F114030193013C043706F18A
:1038A0001408002D00F0BE804A69D8F80030DDF819
:1038B000049090B24FEA124C05FB00F005FB0CF2AD
:1038C00002EB104C1FFA8CFE9AB280B2121ACEEBA9
:1038D000134303EB224E92B2C9EB070006F1180323
:1038E00042EA0E4901F11802974243F8049CC0F3E2
:1038F00080004FEA1C4C4FEA2E4E70D328B310685C
:103900001B6882B2000C05FB02CC05FB00F000EB4B
:103910001C401EFA83F21FFA8CFC1FFA80FECCEBCF
:103920000202CEEB134303EB224E1FFA82FC06F198
:103930001C0301F11C024CEA0E4C974243F804CCE4
:103940004FEA2E4E4FEA104C49D31046D3F8009060
:1039500050F804BB1FFA8BFA4FEA1B4B05FB0ACC4D
:1039600005FB0BFA0AEB1C4B1FFA8BFA1EFA89FEB9
:103970001FFA8CFCCCEB0E0ECAEB194C0CEB2E4A4A
:1039800099461FFA8EFE4EEA0A4C49F804CB52685B
:103990005B681FFA82FE05FB0EFE4FEA124C0EEB2F
:1039A0001B4B05FB0CF202EB1B4C9AB21FFA8CFE70
:1039B00002EB2A421FFA8BFBCBEB0202CEEB134346
:1039C00003EB224E92B24B4642EA0E49021D974249
:1039D00043F8049B4FEA1C4C4FEA2E4EB5D2201DF3
:1039E00006EB80035A68EAB9181D984519D250F8B9
:1039F000042CB2B9043BC8EB0300C21C50070DD520
:103A0000013C98450DD21A68043B3AB109E01868A8
:103A1000043B30B91A68013C043B12B9013C98459B
:103A2000F5D33461304602F0D1FC0028C0F2838027
:103A3000019AD8F8003052F8040B1FFA83F981B2CA
:103A4000000CC1EB0901C0EB1343DDF8049003EB5C
:103A50002140434689B241EA0041C9EB070C0135D8
:103A60000014974243F8041BCCF380014BD3B9B147
:103A700052F804EB19681FFA8EF91FFA81FAC9EBA4
:103A80000A094FEA1E4C4844CCEB114101EB20419E
:103A900080B240EA014043F8040B0814974232D345
:103AA00082461146D3F800E051F8040B1FFA8EFB52
:103AB0001FFA80F94FEA104CC9EB0B0B0BEB0A0015
:103AC000CCEB1E4A0AEB20499E4680B240EA0940F0
:103AD0004EF8040B50685B6882B21FFA83FC000C3E
:103AE000C2EB0C0202EB2942C0EB134303EB224072
:103AF00092B242EA004A73460A1D974243F804AB69
:103B00004FEA204ACDD2211D06EB8103586890B9B7
:103B10001A1D98450ED252F8041C59B9043BC8EB43
:103B20000300C21C520713D5013C984502D2186805
:103B3000043B68B13461284603B0BDE8F08F1A68D1
:103B4000043B002AF6D11968013C043B0029F1D15D
:103B5000013C9845F3D3EDE70020EDE700000000BD
:103B60002DE9F04F9DB081460291016C269C059293
:103B700008935BEC10AB51B1436C012202FA03F2E3
:103B80004B608A6002F0D0F80020C9F84000BBF119
:103B900000083BDB0021216000231A46C7F6F073C2
:103BA000C7F6F07208EA0300904218D00022002302
:103BB0005046594654465D4604F00CF900282BD077
:103BC0000898279D01230360002D00F0D180A449AF
:103BD0004A1E2960049204981DB0BDE8F08F089D2C
:103BE00042F20F732B60BAF1000F00F0A8809D48DD
:103BF0000490279D002DEED0049DEB78002B00F063
:103C00000E8229460831279D2960E4E728F0004804
:103C100001252560C346BFE7484645EC104B1BA96C
:103C20001AAA02F007FDC8F30A560A90002E40F0C7
:103C300090801A9F1B9C6FF482613E198E42C0F2E5
:103C400039834FF60E42CFF6FF72901B06F21244F4
:103C500008FA00F12AFA04F541EA050003F0DCFD58
:103C60000125013EA1F1F8710B9500230022C3F656
:103C7000F87303F093FC74A3D3E9002303F042FE2E
:103C800073A3D3E9002303F08BFC044630460D46B2
:103C900003F0D2FD70A3D3E9002303F033FE024604
:103CA0000B462046294603F07BFC04460D4604F0F3
:103CB000C3F82946069000222046002304F094F819
:103CC000002840F0C782069A162A00F2C082664C8D
:103CD00004EBC205D5E9000152465B4604F0A2F8A8
:103CE000002800F0EF8206980022411E06911092F3
:103CF000BE1B013E00F1C882002407960C94069D6D
:103D0000002DC0F2B582DDF81C800F9508EB050C84
:103D10000024CDF81CC00E94029D092D2BD8052D32
:103D200041F34480281F0290002502998A1E032A2D
:103D300023D8DFE812F0440530054A03410549491C
:103D40004A4AC8F31308B8F1000F18BF0A46049294
:103D50004FE72BF07F4323F4700242F07F5400259D
:103D6000504644F44011A6F2FF361A9F0B957CE7AB
:103D70003F4D04952FE7002402940024C9F84440E5
:103D80004846214601F0AAFF01254FF0FF3204907A
:103D90000992C9F84000119205940D951B9B002BC8
:103DA000C0F2408106990E2900F33C812E4D05EBAF
:103DB000C10090ED007B059900298DED027BC0F2DA
:103DC0000185DDE902235046594603F0C5FE04F0A3
:103DD00033F8064603F030FDDDE9022303F092FDDF
:103DE00002460B465046594603F0D8FB099ADDF8C7
:103DF000108006F13003012A04460D4608F8013B05
:103E000000F0928000230022C4F2240303F07AFD24
:103E10000022002304460D4603F0DCFF002840F09A
:103E2000C180049F049E0998023706EB000BC7EB84
:103E30000B01C90700F1C880CDF814B0DDE902AB71
:103E40004CE000BFAFF3008061436F63A787D23FB0
:103E5000B3C8608B288AC63FFB799F501344D33F79
:103E600089850008A8850008C88500089C85000889
:103E70008885000803F046FD0022002304460D4615
:103E800003F0A8FF52465B46002840F08B80204696
:103E9000294603F061FE03F0CFFF064603F0CCFC99
:103EA00052465B4603F02EFD02460B46204629464D
:103EB00003F074FB303600230022C4F2240307F819
:103EC000016C03F01FFD00220023B84604460D4696
:103ED00007F1010703F07EFF002863D152465B46DD
:103EE0002046294603F038FE03F0A6FF064603F0FD
:103EF000A3FC52465B4603F005FD02460B462046F6
:103F0000294603F04BFBDDF814C0002306F130080E
:103F10000022674507F8018C0446B8460D46C4F2F6
:103F2000240307F10107A5D122462B462046294646
:103F300003F036FB04460D462246DDE902012B461E
:103F400003F052FF40B9DDE9020122462B4603F09F
:103F500041FF38B3F50725D518F801BC049AD343BF
:103F600008EB0300C00700F105851546BBF1390FCA
:103F700008F1FF3112D18D4200F03F8511F801BCEC
:103F8000BBF1390F884601F1FF3107D111F801BCAF
:103F90008846BBF1390F08F1FF31ECD00BF101027B
:103FA000D3B20B7048460A9901F0BEFE0698089DF0
:103FB000411C002288F800202960279D002D3FF435
:103FC0000AAEC5F8008006E6DDE902232046294650
:103FD00003F0C2FD03F030FF064603F02DFCDDE9DF
:103FE000022303F08FFC02460B462046294603F0CD
:103FF000D5FA303600230022C4F2240307F8016CFE
:1040000003F080FCB846049F0022002304460D46BE
:10401000033703F0DFFE00283FF40EAFC2E7049839
:10402000C11CF0E50D9F002F00F03381029C012C94
:1040300040F3F883099A0E9B571EBB42C0F2E884F6
:10404000DD1B099C002CC0F237860C9C099FDDF813
:1040500030E0079A0EEB07084846D7190121CDF842
:104060003080079701F032FF0B9064B10799002967
:1040700009DD0C9B0846A042A8BF20461A1A0F1A59
:104080000C92241A07970E9900291ADD0D98002822
:1040900000F0AB84002D10DD0B992A46484602F053
:1040A00087F80B900B990A9A484601F019FF0A9974
:1040B0000646484601F038FE0A960E9B5A1B40F011
:1040C000AB830121484601F001FF0F9D002D0746FB
:1040D00005DD394648462A4602F06AF80746029A44
:1040E000012A40F3598100250F9B002B40F01A84D0
:1040F0000121079BC91811F01F0000F0CF80C0F10B
:104100002002042A40F35586DDF83080079AC0F17A
:104110001C0308EB030CD118CDF830C0E41807914C
:104120000C98002805DD48460A990C9A02F08AF896
:104130000A90079A002A04DD3946484602F082F8C0
:104140000746109B002B40F0D283099B002B40F3C5
:10415000F3830D99002940F0B78009980D9DC2079F
:1041600040F1A28382460A9EDDF8108010E001F043
:10417000E5FD39460646FFF77BFB303008F80400C2
:10418000314648460A22002301F0D8FD651C064648
:1041900039463046FFF76CFB6C1C00F1300B0A22ED
:1041A0000023A2453146484608F805B0DFDC0A96F0
:1041B000DDF81080099A0025012AACBF904408F16F
:1041C000010801220A99484602F03CF839460A9053
:1041D00002F0FCF8002840F34F8418F8012C0499F1
:1041E000C84308EB0003DB0707D5392A08F1FF3085
:1041F00018D110F8012C04998046392A08F1FF30B3
:1042000010D1814200F06C8310F8012C392A8046CD
:1042100000F1FF3006D110F8012C8046392A08F150
:10422000FF30EED0013202704846394601F07CFD85
:104230000B9B002B3FF4B6AE002D00F0E7829D42B1
:1042400000F0E4824846294601F06EFDDEE20123DB
:1042500010934DE5069803F0EFFA22462B4603F043
:10426000B9FD00287FF42FAD0698411E06912AE57E
:104270000C98DDF818E00023CEEB0001CEF100022F
:104280000C910E920F9347E5764200230C9607930C
:1042900035E50D980E9D0C9C0B90E6E61C230C99C1
:1042A000DDF81CC0C8180CEB030E0C90E418CDF818
:1042B0001CE035E74FF6EE35CFF6FF75AB1B0AFA7B
:1042C00003F0CBE4109013E5002C05DD48460B9974
:1042D000224601F0B7FF0B90002D40F005840B9EA5
:1042E000099D049A049B51190AF001000B9DDDF809
:1042F00028A007915C1C099039465046FFF7B8FA90
:1043000029468046504602F061F8394632468346D7
:10431000484602F089F8C168631E0246059308F119
:10432000300C002900F0878248461146CDF800C0C5
:1043300001F0FAFCDDF800C00120BBF1000FC0F273
:104340007B8305D1029A1AB90999002900F0748378
:10435000002800F3E083079804F801CC8442A046CB
:1043600000F0E88351460A220023484601F0E6FCAB
:10437000B542824600F08E8229460A220023484632
:1043800001F0DCFC314605460A224846002301F0D4
:10439000D5FC01340646AFE7BAF1000F7FF4A3AEB7
:1043A000CBF313005946002840F092840025C7F64D
:1043B000F0750D40002D3FF497AE0C9B07995A1CE9
:1043C000481C0C92079001258EE601230D93059958
:1043D000002940F32C830C46119109910021172CE0
:1043E000C9F844100AD9012204235B0003F1140028
:1043F00011460132A042F8D9C9F84410484601F0EC
:104400006DFC0E2C0490C9F840003FF6C7AC002D9F
:104410003FF4C4AC069F002FCDE912AB40F34083BC
:10442000994C07F00F0604EBC6003E11F106D0E9E7
:10443000004540F1F882954F50465946D7E9082388
:1044400003F08AFB06F00F0682468B46032786B1EF
:10445000DFF8388220462946F20704D5D8E9002340
:1044600003F050FA0137761008F10808F4D1044639
:104470000D465046594622462B4603F06DFB8246B8
:104480008B46109951B10023504659460022C3F67D
:10449000F07303F0A9FC002840F02284384603F0B2
:1044A000CBF952465B4603F02DFA00230022C4F2FA
:1044B0001C0303F075F8099A0446A1F15075002A0F
:1044C00000F07682069E1996099E0D98002800F04D
:1044D00037836D4A002102EBC60353E90223002013
:1044E000C3F6E07103F038FB22462B4603F056F882
:1044F000CDE916015946504603F09EFC044603F0F0
:104500009BF902460B465046594603F047F83034B3
:10451000DDF81080CDE914015FFA84FB08F801BBD7
:10452000DDE91601DDE9142303F07CFC002840F0EE
:104530002F810021DDE914230020C3F6F07103F080
:104540002DF802460B46DDE9160103F06BFC00284E
:1045500040F00D84012E40F39F82049C6FEA08070F
:10456000A619BD19002305F001070022C4F2240397
:10457000DDE916011896169703F0C4F9002300220E
:10458000C4F2240304460D46DDE9140103F0BAF930
:104590000F46064603F050FC834603F04DF90246F1
:1045A0000B463046394602F0F9FFC2460BF13002A5
:1045B0005FFA82FB0AF801BB22462B4606460F46ED
:1045C000D04603F011FC002840F0E2800021324682
:1045D0003B460020C3F6F07102F0E0FF22462B4676
:1045E00003F002FC002840F0C28318998A4500F0CD
:1045F00053821698002842D000230022C4F22403DC
:104600002046294603F07EF900230022C4F2240349
:1046100004460D463046394603F074F90F46064607
:1046200003F00AFC804603F007F902460B463046C9
:10463000394602F0B3FF08F130035FFA83FB0AF852
:1046400001BB22462B4606460F46D04603F0CCFB64
:10465000002840F09D80002132463B460020C3F6F2
:10466000F07102F09BFF22462B4603F0BDFB0028B1
:1046700040F07D83DDF860E0F24500F00D82CDF87A
:104680005090DDF8609050E0C885000890860008E2
:1046900000210020C3F6F07102F080FF22462B4675
:1046A00003F0A2FB00230022C4F22403002840F000
:1046B0005C832046294603F025F900230022C4F23A
:1046C000240304460D463046394603F01BF90F46D5
:1046D000064603F0B1FB804603F0AEF802460B46F7
:1046E0003046394602F05AFF08F130035FFA83FB87
:1046F0000AF801BB22462B4606460F4603F074FB20
:10470000D04632463B46002840D100210020C3F667
:10471000F07102F043FF22462B4603F065FB0028B0
:1047200040F02383CA4500F0B58100232046294686
:104730000022C4F2240303F0E5F800230022C4F2AF
:10474000240304460D463046394603F0DBF80F4695
:10475000064603F071FB834603F06EF802460B46F3
:104760003046394602F01AFFD0460BF130025FFAAC
:1047700082FB08F801BB22462B4606460F4603F093
:1047800033FBC24632463B46002881D0DDF85090CC
:104790001998069006E400240D94059BDDF818E0B6
:1047A00003EB0E0411940134002C09943FF716AE6C
:1047B0000021C9F8441021E601220D92EDE7002006
:1047C0000D9004E6099A002A3FF7FBAA40F0E9821F
:1047D00000230022C4F21403DDE9020103F092F881
:1047E00052465B4603F014FB099F0B97002800F02C
:1047F000B880059ADDF81080D543069548463946BD
:1048000001F092FA0B9B002B3FF4CCAB48460B997E
:1048100001F08AFAFFF7C6BB48460A9901F0C8FCC6
:104820000A904EE40B9D002D00F04B8203F23347BB
:104830000E9D0C9C0BE411465046CDF800C0019231
:1048400001F0C4FD019A034611464846019301F068
:104850006BFA0198DDF800C000287FF46EAD029974
:1048600000297FF46AAD099B002B7FF466ADBCF193
:10487000390FCDF828A0DA46E34600F0F580BAF10A
:10488000000F01DD08F1310BDDF814800B9608F8FC
:1048900001BBC9E4294648460A22002301F04EFA2A
:1048A00001340546064627E50A983946FEF7E0FF3B
:1048B000099BDDF810C0012500F1300BAB428CF8EC
:1048C00000B07FF775AC48460A990D9B0A2201F0AB
:1048D00035FADDF824A00A900646DDF8108057E48A
:1048E000069B049A581C3121069011709CE40A988A
:1048F000394601F06BFD0028BFF627AC0A22484676
:104900000A99002301F01AFADDF818E00D9A0A90CE
:104910000EF1FF38CDF81880002A40F03782119947
:10492000099112E43A6907EB8200006901F082FA0A
:10493000C0F12001FFF7DDBB029A022A7FF709AC24
:10494000002B7FF456AF39460522099B484601F0FB
:10495000F5F9074639460A9801F038FD00287FF737
:1049600048AF0698DDF810803123411C08F8013B60
:10497000069143E7BBF1390F08F1FF317FF40EAB2D
:1049800011F801BC049D8846FFF7F0BA384602F0E2
:1049900053FF02460B465046594602F0B3FF002330
:1049A0000022C4F21C0302F0FBFD0446A1F1507585
:1049B00000230022C4F214035046594602F0EEFDD3
:1049C00022462B4682468B4603F02CFA07460028E7
:1049D00040F06F81224605F100435046594603F0EE
:1049E00003FA002858D00B9703E748460A990E9A15
:1049F00001F0DEFB0A90FFF764BB0698049D411CA2
:104A000006912946302231232A700B70FFF7CABA6B
:104A1000DDF838C00F990E97CCEB070548190F90B9
:104A20000025FFF70EBBDDE912AB02270FE50124DD
:104A3000119409940594BBE60028E346CDF828A01C
:104A400064467FF721AF01220A99484601F0FAFB3C
:104A500039460A9001F0BAFC002840F38C81392CC9
:104A600008F1310B7FF410AFDDF814800B9639227A
:104A700008F8012BFFF7B3BB03D11BF0010F7FF444
:104A8000ACAB43469846013B18F8012C302AF9D0CC
:104A9000FFF7CABBDDF85090DDE912ABFFF77EB936
:104AA000069D6C42002C00F01681B64B04F00F01FD
:104AB00003EBC102D2E90023DDE9120102F022FF7B
:104AC000241182468B4600F06E81AF4D0227E3072A
:104AD00004D5D5E9002302F015FF0137083564102D
:104AE000F5D182468B46CCE40B9D4846696801F0BF
:104AF000F5F829690446881C294682000C3104F126
:104B00000C0000F0AFFF48462146012201F09AFB5D
:104B10000646FFF7E5BBBCF1390FE346CDF828A008
:104B2000A2D0DDF814800B960CF1010E08F801EB11
:104B3000FFF77ABBE346CDF828A00B96FFF741BB01
:104B40009049731E01EBC30022461893D0E900017F
:104B50002B4602F0D7FECDE914015946504603F02A
:104B60006BF9044602F068FE02460B465046594671
:104B700002F014FDDDF810803034012E82468B46A1
:104B800008F8014B00F08180049C0023671E07EBAE
:104B9000060A0022C4F22403CDF800A002F0B2FEFF
:104BA000E6430F4606EB0A05064603F045F90446C0
:104BB00002F042FE02460B463046394602F0EEFC59
:104BC000DDF810C030348CF80140DDF800C0E0455D
:104BD00005F0010582468B46474654D0F5B10023C7
:104BE0000022C4F22403CDF800C002F08BFE8B46F5
:104BF000824603F021F9044602F01EFE47460246B3
:104C00000B4650465946303402F0C8FC07F8014FB5
:104C1000DDF800C0674582468B4634D05046594681
:104C2000664600230022C4F2240302F06BFE0D4608
:104C3000044603F001F9824602F0FEFD02460B46EF
:104C40002046294602F0AAFC0AF130040023002283
:104C5000C4F2240307F8014F02F054FE0D46044647
:104C600003F0EAF8834602F0E7FD02460B462046D1
:104C7000294602F093FC0BF1300207F8012FB742EE
:104C8000CFD182468B46189B984400230022C3F65E
:104C9000E073DDE9140102F083FC52465B4603F049
:104CA000A3F8002849D0199D18F801BC0695FFF714
:104CB00055B900270B9754E60C9A0027141BFFF7F1
:104CC000C6B91A9B0E9D0C9CC3F13607FFF7BFB9FE
:104CD0005546FFF709BADDE912AB0227FFF7D1BB52
:104CE000099D002D3FF452AE119B002B7FF7D4AEEF
:104CF00000230022C4F224035046594602F002FE6B
:104D00008246781C8B4602F097FD02460B465046C1
:104D1000594602F0F7FD00230022C4F21C0302F002
:104D20003FFCDDF818C0119E0CF1FF3E0446CDF8A3
:104D300064E0A1F15075FFF7C8BB0021DDE9142341
:104D40000020C3F6E07102F029FC52465B4603F0F6
:104D500069F800283FF4A0AE4146884601F1FF31D2
:104D600018F8010C3028F8D012E5DDF850901999A8
:104D70000691FFF7F3B87FF487AD1BF0010F3FF406
:104D800083AD6CE6C88500089086000848460B99FC
:104D90000A22002300F0D2FF0B9011980990FFF730
:104DA000D4B900271FE60227FFF76BBB0125FEF7EA
:104DB000BCBF3FF4B5A9C0F13C03FFF770BA00BF18
:104DC0002DE9F0410D46804610B1836B002B62D077
:104DD000A889E0B100F0080211B2D9B12E69B6B1CC
:104DE00083072C6808BF6B692E6018BF0023A41BC3
:104DF000AB600AE0324623466F6AE9694046B8472D
:104E00000028C0EB0404064452DD002CF2DC002034
:104E1000BDE8F0816A6840F40061002AA9814FDD95
:104E2000AC6A002CF3D000F4805632B20020D8F8DF
:104E30000060C8F80000002A30D02A6D01F004009C
:104E400001B229B168682B6B121A0BB1E96B521AC7
:104E500000234046E969A047421C35D0AB892A6946
:104E600003F4805123F40063AB8109B2002385E889
:104E70000C00002944D1296BC8F800600029C6D075
:104E800005F14000814202D0404600F0F1F80020D8
:104E90002863BDE8F08100F075F899E7E96901231E
:104EA0004046A047411C02462CD0A989AC6AC5E700
:104EB000AA8942F04003AB814FF0FF30BDE8F0819A
:104EC000EB6B002BACDCA2E7D8F8003063B11D2BF4
:104ED00001D0162B21D1A8892B6920F40062002172
:104EE000AA8169602B60C6E7AA8929696B6002F410
:104EF00080531BB222F40062AA812960002BBAD031
:104F00002865B8E7D8F800100029CED01D2901D0B7
:104F10001629CDD1C8F8006079E7AA8942F040018E
:104F2000A981BDE8F08100BF46F60121C0F600016D
:104F300000F068B9002310B504468181C281036086
:104F400043608360436603614361836119460822BD
:104F500000F15C0000F028FE46F2597046F27D71C7
:104F600046F2C17246F2E573C0F60000C0F60001D9
:104F7000C0F60002C0F60003E46120626162A26232
:104F8000E36210BD836B70B5044603B170BD0F4A78
:104F9000C4F8E032E26301251A4604F53B760323A8
:104FA0000421C4F8E4324068A563C4F8E862FFF75E
:104FB000C1FFA06809212A46FFF7BCFFE068122163
:104FC0000222BDE87040FFF7B5BF00BF294F0008BF
:104FD000704700BF704700BFF8B5224D0F4604462A
:104FE00000F078FEAB685E6826F0030606F6EF7008
:104FF000C11B0A0B571E3F03B7F5805F07DB00217B
:105000002046FCF747FBAB689919884204D020463C
:1050100000F062FE0020F8BD79422046FCF73AFB22
:1050200001300DD0104BA8681A68F61B46F0010637
:10503000D71B466020461F6000F04EFE0120F8BDE1
:1050400000212046FCF726FBAB68C21A0F2ADEDDE2
:1050500006490968401A044942F0010208605A6092
:10506000D5E700BFA0040020AC090020AC08002058
:105070002DE9F0410D460646002955D000F02AFEE4
:1050800055F8041CDFF86CC1A5F1080421F00103F8
:10509000E218DCF808005768904227F0030765D053
:1050A00011F00101576032D00021D0194068C007CB
:1050B00006D4DB19906800294AD0D268C26090609B
:1050C00043F001006060E350E1B9B3F5007F2DD3F8
:1050D0005A0A042A66D89809383042000CEB820E2E
:1050E0004449DEF80820724562D0506820F0030180
:1050F0008B4202D292689645F7D1D068E060A260F8
:10510000D46084603046BDE8F04100F0E5BD55F85C
:10511000085C641B0CF10808A06840452B443FD094
:10512000E568C560A860C0E7BDE8F081DD080CEB6C
:10513000C502DCF804009168E260AB10012505FAB5
:1051400003F31843A160CCF804009460CC60D9E765
:10515000294DA842B1D143F00102CCF81440CCF85B
:105160001040E060A0606260E350CBE7FF18CB071F
:1051700007D455F8081C641A7F18E368A068C36058
:1051800098601E4ACCF80840116847F001038F422E
:105190006360B7D31A4A30461168FFF71DFFB1E7C5
:1051A000012182E7142A0CD802F15B00420095E746
:1051B0004B688010012505FA00F003434B60104650
:1051C0009CE7542A03D8180B6E30420086E7B2F5EC
:1051D000AA7F03D8D80B773042007FE740F25451C2
:1051E0008A4203D8980C7C30420077E7FC227E206C
:1051F00074E700BFA0040020A8040020A808002035
:10520000A80900202DE9F04780468946FFF7E0FE17
:1052100018F538784FD04FF0000AD8F80450D8F875
:105220000840013D3DD4B4F90C3005F001063BB116
:10523000B4F90E00431C03D02046C8474AEA000ACE
:1052400068346F1E6DB376B1B4F90C1039B1B4F98E
:105250000E20531C03D02046C8474AEA000A013FEB
:1052600068347B1C1DD0B4F90C6004F168053EB1B4
:10527000B4F90E300133204602D0C8474AEA000A8A
:10528000B5F90C407E1E3CB1B5F90E707B1C28466A
:1052900002D0C8474AEA000A05F16804771E002ECA
:1052A000E1D1D8F80080B8F1000FB6D1FFF792FE37
:1052B0005046BDE8F087C246F8E700BF40F27C40A8
:1052C000C2F20000704700BF40F29C43C2F20003EC
:1052D0001868704740F24440C2F20000704700BFB7
:1052E000F0B58B8903F002020C4611B291B005466D
:1052F000002938D1B4F90E10002916DB01AAFCF7F9
:10530000F7F9002810DB029B03F47040B0F500565B
:1053100077427741B0F5004F2CD0A38943F4006069
:10532000A0814FF480660CE0A38903F0800637B2B9
:1053300043F40062002F0CBF4FF480664026A28128
:1053400000273146284600F03FF8A189002828D0E0
:105350001B4A41F08003EA63A381206020616661FB
:105360009FB911B0F0BD04F1430201202260226117
:105370006061F6E7A16A134A9142CED1A1894FF448
:1053800080663143A181E664DBE72846B4F90E105C
:1053900001F0A0FD0028E4D0A08940F00101A18126
:1053A000DFE701F400731AB2002ADAD104F14300F6
:1053B00041F002010123A181206020616361D0E7F7
:1053C000294F0008C16700082DE9F04F01F10B05D6
:1053D000162D83B0064627D935F0070527D4A942F4
:1053E00025D8304600F076FCB5F5FC7F23D2BA4FC5
:1053F0004FEAD50C07EBCC02D468944200F0DE8172
:105400006368E268A16823F003002318CA60586843
:10541000916040F001025A60304600F05DFC0834B3
:10542000204603B0BDE8F08F1025A942D9D90C243D
:1054300034600024F4E75FEA552C00F08B80BCF167
:10544000040F00F255814FEA951707F1380E4FEA25
:105450004E01A14F07EB8101CC68A14205D10CE0C0
:10546000002A7CDAE468A14207D0636823F00300D5
:10547000421B0F2AF4DD0EF1FF3E0EF1010C964B9C
:105480003C6903F1080E744500F07581616821F0F4
:1054900003014A1B0F2A00F35B81002AC3F814E0C2
:1054A000C3F810E069DAB1F5007F80F02F81CA08F7
:1054B00003EBC2014FF00109921009FA02F95A6890
:1054C0008868E16049EA0209A060C3F804908C6032
:1054D000C46001204FEAAC0400FA04F0484556D8F5
:1054E00019EA000F07D12CF0030C400019EA000F55
:1054F0000CF1040CF9D007EBCC094C46E046E3680C
:105500009C4207D13AE1002A80F26281DB689C422A
:1055100000F03481596821F003014A1B0F2AF2DDA3
:105520001C465919D86854F808CF8A5045F001052F
:1055300042F00102CCF80C00C0F808C05D6079614F
:105540003961C1F80CE0C1F808E04A60304600F06B
:10555000C3FB65E74FEAD50E4FEA4E0179E7221803
:10556000E3685068A16840F001005060CB6099602A
:10557000304600F0B1FB083452E7611830464B6802
:1055800043F001024A6000F0A7FB083448E7BC681A
:10559000606820F00309A94504D3C5EB09030F2B6C
:1055A00000F38D804D4A4E4B11681868013104EBB1
:1055B000090B05EB000300F05A8103F580500F3012
:1055C00020F47F6121F00F0C614630468DE8041015
:1055D000FCF760F8B0F1FF3F80469DE8041000F052
:1055E0005281834500F20F81DFF800A1DAF8003024
:1055F000C3456344CAF8003000F04A8112680132A2
:1056000000F05781CBEB080B5B44CAF8003018F070
:10561000070100F00B81C1F10800C1F580538044FF
:1056200003F1080208EB0C010805030DC3EB020BA4
:1056300030465946FCF72EF8431C00F04681C8EB73
:1056400000020BEB020141F00100DAF80030C7F86C
:1056500008805B44BC42CAF80030C8F8040015D08A
:10566000B9F10F0F40F2F2806168A9F10C0222F04B
:105670000702A01801F0010C42EA0C0E05210F2AC6
:10568000C4F804E04160816000F21781154ABC68EB
:105690001068834288BF1360134A11688B4288BF29
:1056A0001360636823F00300A842C5EB000301D335
:1056B0000F2B04DC304600F00FFB0024B0E662192B
:1056C00043F0010145F00105656030465160BA6064
:1056D00000F002FB0834A3E6A0040020AC08002080
:1056E000A8090020A4090020A0090020AC0900207E
:1056F000BCF1140F7BD9BCF1540F00F28D804FEA3E
:10570000153404F16E0E4FEA4E01A2E6480A042851
:1057100072D9142800F2AE8000F15B094FEA490209
:1057200007EB8200DFF8F0818368834200F081801C
:105730005A6822F00302914202D29B689842F7D144
:10574000DA68D7F80490E260A360DC609460C0E699
:10575000611942F0010045F0010565605961196168
:105760004860C1F80CE0C1F808E08A50304600F00B
:10577000B3FA083454E6D3F80490AAE608F1010815
:10578000083418F0030F7FF4BAAE49461CF0030F3B
:10579000A1F108040CF1FF3C00F0B0800968A142BF
:1057A000F4D07C684000A0423FF6F1AE00283FF400
:1057B000EEAE044200F0A780C4469CE604F1080364
:1057C0006469A34208BF0CF1020C3FF458AE17E61F
:1057D00059181C464868DB6854F8082F40F001004F
:1057E0004860D3609A60304600F076FA18E60CF113
:1057F0005B0E4FEA4E012CE64FEA911808F138098A
:105800004FEA49028CE7BC423FF4EEAE424CA4683A
:10581000626822F0030047E7BCF5AA7F1CD84FEA74
:10582000D53202F1770E4FEA4E0112E64FF4805264
:10583000F8E6D8F804004FEAA902012101FA02F2C1
:1058400042EA0009C8F804901A467CE70122C8F829
:1058500004204446002027E740F254539C4524D8B6
:105860004FEA954000F17C0E4FEA4E01F1E503F15D
:10587000100CA9E654282CD84FEA113202F16E0917
:105880004FEA49024CE7BC68616821F003000BE76E
:105890004FEA0B50010D00297FF4B0AEB8680CEB55
:1058A000090141F001044460F0E6FC214FF07E0E56
:1058B000CFE51A48C0F80080A9E604F10801184CA9
:1058C0003046FFF7D5FB2368E0E601204FF0000BE0
:1058D000BBE6B0F5AA7F06D84FEAD13303F17709CA
:1058E0004FEA49021CE740F2545398420FD84FEA5E
:1058F000914000F17C094FEA490211E77C6824EAF3
:1059000000047C604EE7400008F1040851E7FC22E7
:105910004FF07E0904E700BFA0040020AC0800207F
:10592000AC0900208307F0B4C9B200F09680531E82
:10593000002A00F0948002788A420BD0421CD807DB
:105940001AD512F0030F10461CD01478013B013217
:105950008C4211D1F0BC7047002B7CD01278013BF7
:105960008A42F7D014F0030F204604F1010209D057
:105970002478013B8C42EDD012F0030F104602F167
:105980000104E9D1032B3FD9046841EA012545EA26
:10599000054585EA0407A7F1013222EA07021E1F26
:1059A000041D12F0803FC6F380072DD1032E33462D
:1059B00029D967B120460434066885EA0602A2F1B7
:1059C000013626EA020212F0803F19D01CE0261DA3
:1059D0002046246885EA0402A2F1013424EA020286
:1059E00012F0803F10D1346885EA0402A2F101343C
:1059F00024EA0202043B341D12F0803F304603D1FA
:105A0000043B032BE3D820465D1E23B303788B426F
:105A1000A0D0431C0022E80714D5184601220478C0
:105A200001338C4296D09542184603F1010402F1ED
:105A300002020ED01B788B428CD0631C2046247847
:105A40008C4287D09542184603F1010402F102020C
:105A5000F0D100207EE718467CE7134692E7104617
:105A600078E700BF0F2A2DE9F00340F2958041EA64
:105A700000039B0740F092800C6804604D6845600D
:105A80008E68A2F110038660CC681D460F2DC4609D
:105A9000C3F3001601F1100400F1100322D966B11E
:105AA00026681E6066685E60A6689E60E668103DB7
:105AB000DE60103410330F2D14D926681E6066681E
:105AC0005E60A6689E60E668DE6026691E616669A3
:105AD0005E61A6699E61E669203DDE612034203367
